{
  "contractName": "Record",
  "abi": [
    {
      "inputs": [],
      "stateMutability": "nonpayable",
      "type": "constructor"
    },
    {
      "inputs": [
        {
          "internalType": "address",
          "name": "",
          "type": "address"
        }
      ],
      "name": "AppointmentPerPatient",
      "outputs": [
        {
          "internalType": "uint256",
          "name": "",
          "type": "uint256"
        }
      ],
      "stateMutability": "view",
      "type": "function",
      "constant": true
    },
    {
      "inputs": [],
      "name": "appointmentCount",
      "outputs": [
        {
          "internalType": "uint256",
          "name": "",
          "type": "uint256"
        }
      ],
      "stateMutability": "view",
      "type": "function",
      "constant": true
    },
    {
      "inputs": [
        {
          "internalType": "uint256",
          "name": "",
          "type": "uint256"
        },
        {
          "internalType": "uint256",
          "name": "",
          "type": "uint256"
        }
      ],
      "name": "appointmentFiles",
      "outputs": [
        {
          "internalType": "string",
          "name": "",
          "type": "string"
        }
      ],
      "stateMutability": "view",
      "type": "function",
      "constant": true
    },
    {
      "inputs": [
        {
          "internalType": "uint256",
          "name": "",
          "type": "uint256"
        }
      ],
      "name": "appointmentIds",
      "outputs": [
        {
          "internalType": "uint256",
          "name": "",
          "type": "uint256"
        }
      ],
      "stateMutability": "view",
      "type": "function",
      "constant": true
    },
    {
      "inputs": [
        {
          "internalType": "uint256",
          "name": "",
          "type": "uint256"
        }
      ],
      "name": "appointments",
      "outputs": [
        {
          "internalType": "uint256",
          "name": "id",
          "type": "uint256"
        },
        {
          "internalType": "address",
          "name": "doctoraddr",
          "type": "address"
        },
        {
          "internalType": "address",
          "name": "patientaddr",
          "type": "address"
        },
        {
          "internalType": "string",
          "name": "date",
          "type": "string"
        },
        {
          "internalType": "string",
          "name": "time",
          "type": "string"
        },
        {
          "internalType": "string",
          "name": "prescription",
          "type": "string"
        },
        {
          "internalType": "string",
          "name": "description",
          "type": "string"
        },
        {
          "internalType": "string",
          "name": "diagnosis",
          "type": "string"
        },
        {
          "internalType": "string",
          "name": "status",
          "type": "string"
        },
        {
          "internalType": "uint256",
          "name": "creationDate",
          "type": "uint256"
        }
      ],
      "stateMutability": "view",
      "type": "function",
      "constant": true
    },
    {
      "inputs": [],
      "name": "doctorCount",
      "outputs": [
        {
          "internalType": "uint256",
          "name": "",
          "type": "uint256"
        }
      ],
      "stateMutability": "view",
      "type": "function",
      "constant": true
    },
    {
      "inputs": [
        {
          "internalType": "uint256",
          "name": "",
          "type": "uint256"
        }
      ],
      "name": "doctorList",
      "outputs": [
        {
          "internalType": "address",
          "name": "",
          "type": "address"
        }
      ],
      "stateMutability": "view",
      "type": "function",
      "constant": true
    },
    {
      "inputs": [
        {
          "internalType": "address",
          "name": "",
          "type": "address"
        }
      ],
      "name": "doctors",
      "outputs": [
        {
          "internalType": "string",
          "name": "ic",
          "type": "string"
        },
        {
          "internalType": "string",
          "name": "name",
          "type": "string"
        },
        {
          "internalType": "string",
          "name": "phone",
          "type": "string"
        },
        {
          "internalType": "string",
          "name": "gender",
          "type": "string"
        },
        {
          "internalType": "string",
          "name": "dob",
          "type": "string"
        },
        {
          "internalType": "string",
          "name": "qualification",
          "type": "string"
        },
        {
          "internalType": "string",
          "name": "major",
          "type": "string"
        },
        {
          "internalType": "address",
          "name": "addr",
          "type": "address"
        },
        {
          "internalType": "uint256",
          "name": "date",
          "type": "uint256"
        }
      ],
      "stateMutability": "view",
      "type": "function",
      "constant": true
    },
    {
      "inputs": [
        {
          "internalType": "address",
          "name": "",
          "type": "address"
        },
        {
          "internalType": "address",
          "name": "",
          "type": "address"
        }
      ],
      "name": "isApproved",
      "outputs": [
        {
          "internalType": "bool",
          "name": "",
          "type": "bool"
        }
      ],
      "stateMutability": "view",
      "type": "function",
      "constant": true
    },
    {
      "inputs": [
        {
          "internalType": "address",
          "name": "",
          "type": "address"
        }
      ],
      "name": "isDoctor",
      "outputs": [
        {
          "internalType": "bool",
          "name": "",
          "type": "bool"
        }
      ],
      "stateMutability": "view",
      "type": "function",
      "constant": true
    },
    {
      "inputs": [
        {
          "internalType": "address",
          "name": "",
          "type": "address"
        }
      ],
      "name": "isPatient",
      "outputs": [
        {
          "internalType": "bool",
          "name": "",
          "type": "bool"
        }
      ],
      "stateMutability": "view",
      "type": "function",
      "constant": true
    },
    {
      "inputs": [],
      "name": "owner",
      "outputs": [
        {
          "internalType": "address",
          "name": "",
          "type": "address"
        }
      ],
      "stateMutability": "view",
      "type": "function",
      "constant": true
    },
    {
      "inputs": [],
      "name": "patientCount",
      "outputs": [
        {
          "internalType": "uint256",
          "name": "",
          "type": "uint256"
        }
      ],
      "stateMutability": "view",
      "type": "function",
      "constant": true
    },
    {
      "inputs": [
        {
          "internalType": "address",
          "name": "",
          "type": "address"
        },
        {
          "internalType": "uint256",
          "name": "",
          "type": "uint256"
        }
      ],
      "name": "patientFiles",
      "outputs": [
        {
          "internalType": "string",
          "name": "",
          "type": "string"
        }
      ],
      "stateMutability": "view",
      "type": "function",
      "constant": true
    },
    {
      "inputs": [
        {
          "internalType": "uint256",
          "name": "",
          "type": "uint256"
        }
      ],
      "name": "patientList",
      "outputs": [
        {
          "internalType": "address",
          "name": "",
          "type": "address"
        }
      ],
      "stateMutability": "view",
      "type": "function",
      "constant": true
    },
    {
      "inputs": [
        {
          "internalType": "address",
          "name": "",
          "type": "address"
        }
      ],
      "name": "patients",
      "outputs": [
        {
          "internalType": "string",
          "name": "ic",
          "type": "string"
        },
        {
          "internalType": "string",
          "name": "name",
          "type": "string"
        },
        {
          "internalType": "string",
          "name": "phone",
          "type": "string"
        },
        {
          "internalType": "string",
          "name": "gender",
          "type": "string"
        },
        {
          "internalType": "string",
          "name": "dob",
          "type": "string"
        },
        {
          "internalType": "string",
          "name": "height",
          "type": "string"
        },
        {
          "internalType": "string",
          "name": "weight",
          "type": "string"
        },
        {
          "internalType": "string",
          "name": "houseaddr",
          "type": "string"
        },
        {
          "internalType": "string",
          "name": "bloodgroup",
          "type": "string"
        },
        {
          "internalType": "string",
          "name": "allergies",
          "type": "string"
        },
        {
          "internalType": "string",
          "name": "medication",
          "type": "string"
        },
        {
          "internalType": "string",
          "name": "emergencyName",
          "type": "string"
        },
        {
          "internalType": "string",
          "name": "emergencyContact",
          "type": "string"
        },
        {
          "internalType": "address",
          "name": "addr",
          "type": "address"
        },
        {
          "internalType": "uint256",
          "name": "date",
          "type": "uint256"
        }
      ],
      "stateMutability": "view",
      "type": "function",
      "constant": true
    },
    {
      "inputs": [],
      "name": "permissionGrantedCount",
      "outputs": [
        {
          "internalType": "uint256",
          "name": "",
          "type": "uint256"
        }
      ],
      "stateMutability": "view",
      "type": "function",
      "constant": true
    },
    {
      "inputs": [
        {
          "internalType": "string",
          "name": "_ic",
          "type": "string"
        },
        {
          "internalType": "string",
          "name": "_name",
          "type": "string"
        },
        {
          "internalType": "string",
          "name": "_phone",
          "type": "string"
        },
        {
          "internalType": "string",
          "name": "_gender",
          "type": "string"
        },
        {
          "internalType": "string",
          "name": "_dob",
          "type": "string"
        },
        {
          "internalType": "string",
          "name": "_height",
          "type": "string"
        },
        {
          "internalType": "string",
          "name": "_weight",
          "type": "string"
        },
        {
          "internalType": "string",
          "name": "_houseaddr",
          "type": "string"
        },
        {
          "internalType": "string",
          "name": "_bloodgroup",
          "type": "string"
        },
        {
          "internalType": "string",
          "name": "_allergies",
          "type": "string"
        },
        {
          "internalType": "string",
          "name": "_medication",
          "type": "string"
        },
        {
          "internalType": "string",
          "name": "_emergencyName",
          "type": "string"
        },
        {
          "internalType": "string",
          "name": "_emergencyContact",
          "type": "string"
        }
      ],
      "name": "setDetails",
      "outputs": [],
      "stateMutability": "nonpayable",
      "type": "function"
    },
    {
      "inputs": [
        {
          "internalType": "string",
          "name": "_ic",
          "type": "string"
        },
        {
          "internalType": "string",
          "name": "_name",
          "type": "string"
        },
        {
          "internalType": "string",
          "name": "_phone",
          "type": "string"
        },
        {
          "internalType": "string",
          "name": "_gender",
          "type": "string"
        },
        {
          "internalType": "string",
          "name": "_dob",
          "type": "string"
        },
        {
          "internalType": "string",
          "name": "_height",
          "type": "string"
        },
        {
          "internalType": "string",
          "name": "_weight",
          "type": "string"
        },
        {
          "internalType": "string",
          "name": "_houseaddr",
          "type": "string"
        },
        {
          "internalType": "string",
          "name": "_bloodgroup",
          "type": "string"
        },
        {
          "internalType": "string",
          "name": "_allergies",
          "type": "string"
        },
        {
          "internalType": "string",
          "name": "_medication",
          "type": "string"
        },
        {
          "internalType": "string",
          "name": "_emergencyName",
          "type": "string"
        },
        {
          "internalType": "string",
          "name": "_emergencyContact",
          "type": "string"
        }
      ],
      "name": "editDetails",
      "outputs": [],
      "stateMutability": "nonpayable",
      "type": "function"
    },
    {
      "inputs": [
        {
          "internalType": "string",
          "name": "_ic",
          "type": "string"
        },
        {
          "internalType": "string",
          "name": "_name",
          "type": "string"
        },
        {
          "internalType": "string",
          "name": "_phone",
          "type": "string"
        },
        {
          "internalType": "string",
          "name": "_gender",
          "type": "string"
        },
        {
          "internalType": "string",
          "name": "_dob",
          "type": "string"
        },
        {
          "internalType": "string",
          "name": "_qualification",
          "type": "string"
        },
        {
          "internalType": "string",
          "name": "_major",
          "type": "string"
        }
      ],
      "name": "setDoctor",
      "outputs": [],
      "stateMutability": "nonpayable",
      "type": "function"
    },
    {
      "inputs": [
        {
          "internalType": "string",
          "name": "_ic",
          "type": "string"
        },
        {
          "internalType": "string",
          "name": "_name",
          "type": "string"
        },
        {
          "internalType": "string",
          "name": "_phone",
          "type": "string"
        },
        {
          "internalType": "string",
          "name": "_gender",
          "type": "string"
        },
        {
          "internalType": "string",
          "name": "_dob",
          "type": "string"
        },
        {
          "internalType": "string",
          "name": "_qualification",
          "type": "string"
        },
        {
          "internalType": "string",
          "name": "_major",
          "type": "string"
        }
      ],
      "name": "editDoctor",
      "outputs": [],
      "stateMutability": "nonpayable",
      "type": "function"
    },
    {
      "inputs": [
        {
          "internalType": "address",
          "name": "_patient",
          "type": "address"
        },
        {
          "internalType": "string",
          "name": "_date",
          "type": "string"
        },
        {
          "internalType": "string",
          "name": "_time",
          "type": "string"
        },
        {
          "internalType": "string",
          "name": "_diagnosis",
          "type": "string"
        },
        {
          "internalType": "string",
          "name": "_prescription",
          "type": "string"
        },
        {
          "internalType": "string",
          "name": "_description",
          "type": "string"
        },
        {
          "internalType": "string",
          "name": "_status",
          "type": "string"
        }
      ],
      "name": "setAppointment",
      "outputs": [],
      "stateMutability": "nonpayable",
      "type": "function"
    },
    {
      "inputs": [
        {
          "internalType": "uint256",
          "name": "_id",
          "type": "uint256"
        },
        {
          "internalType": "string",
          "name": "_date",
          "type": "string"
        },
        {
          "internalType": "string",
          "name": "_time",
          "type": "string"
        },
        {
          "internalType": "string",
          "name": "_diagnosis",
          "type": "string"
        },
        {
          "internalType": "string",
          "name": "_prescription",
          "type": "string"
        },
        {
          "internalType": "string",
          "name": "_description",
          "type": "string"
        },
        {
          "internalType": "string",
          "name": "_status",
          "type": "string"
        }
      ],
      "name": "updateAppointment",
      "outputs": [],
      "stateMutability": "nonpayable",
      "type": "function"
    },
    {
      "inputs": [
        {
          "internalType": "address",
          "name": "_doctor",
          "type": "address"
        }
      ],
      "name": "givePermission",
      "outputs": [
        {
          "internalType": "bool",
          "name": "",
          "type": "bool"
        }
      ],
      "stateMutability": "nonpayable",
      "type": "function"
    },
    {
      "inputs": [
        {
          "internalType": "address",
          "name": "_doctor",
          "type": "address"
        }
      ],
      "name": "RevokePermission",
      "outputs": [
        {
          "internalType": "bool",
          "name": "",
          "type": "bool"
        }
      ],
      "stateMutability": "nonpayable",
      "type": "function"
    },
    {
      "inputs": [],
      "name": "getPatients",
      "outputs": [
        {
          "internalType": "address[]",
          "name": "",
          "type": "address[]"
        }
      ],
      "stateMutability": "view",
      "type": "function",
      "constant": true
    },
    {
      "inputs": [],
      "name": "getDoctors",
      "outputs": [
        {
          "internalType": "address[]",
          "name": "",
          "type": "address[]"
        }
      ],
      "stateMutability": "view",
      "type": "function",
      "constant": true
    },
    {
      "inputs": [],
      "name": "getAppointments",
      "outputs": [
        {
          "internalType": "uint256[]",
          "name": "",
          "type": "uint256[]"
        }
      ],
      "stateMutability": "view",
      "type": "function",
      "constant": true
    },
    {
      "inputs": [
        {
          "internalType": "address",
          "name": "_address",
          "type": "address"
        }
      ],
      "name": "searchPatientDemographic",
      "outputs": [
        {
          "internalType": "string",
          "name": "",
          "type": "string"
        },
        {
          "internalType": "string",
          "name": "",
          "type": "string"
        },
        {
          "internalType": "string",
          "name": "",
          "type": "string"
        },
        {
          "internalType": "string",
          "name": "",
          "type": "string"
        },
        {
          "internalType": "string",
          "name": "",
          "type": "string"
        },
        {
          "internalType": "string",
          "name": "",
          "type": "string"
        },
        {
          "internalType": "string",
          "name": "",
          "type": "string"
        }
      ],
      "stateMutability": "view",
      "type": "function",
      "constant": true
    },
    {
      "inputs": [
        {
          "internalType": "address",
          "name": "_address",
          "type": "address"
        }
      ],
      "name": "searchPatientMedical",
      "outputs": [
        {
          "internalType": "string",
          "name": "",
          "type": "string"
        },
        {
          "internalType": "string",
          "name": "",
          "type": "string"
        },
        {
          "internalType": "string",
          "name": "",
          "type": "string"
        },
        {
          "internalType": "string",
          "name": "",
          "type": "string"
        },
        {
          "internalType": "string",
          "name": "",
          "type": "string"
        },
        {
          "internalType": "string",
          "name": "",
          "type": "string"
        }
      ],
      "stateMutability": "view",
      "type": "function",
      "constant": true
    },
    {
      "inputs": [
        {
          "internalType": "address",
          "name": "_address",
          "type": "address"
        }
      ],
      "name": "searchDoctor",
      "outputs": [
        {
          "internalType": "string",
          "name": "",
          "type": "string"
        },
        {
          "internalType": "string",
          "name": "",
          "type": "string"
        },
        {
          "internalType": "string",
          "name": "",
          "type": "string"
        },
        {
          "internalType": "string",
          "name": "",
          "type": "string"
        },
        {
          "internalType": "string",
          "name": "",
          "type": "string"
        },
        {
          "internalType": "string",
          "name": "",
          "type": "string"
        },
        {
          "internalType": "string",
          "name": "",
          "type": "string"
        }
      ],
      "stateMutability": "view",
      "type": "function",
      "constant": true
    },
    {
      "inputs": [
        {
          "internalType": "uint256",
          "name": "_id",
          "type": "uint256"
        }
      ],
      "name": "searchAppointment",
      "outputs": [
        {
          "internalType": "address",
          "name": "",
          "type": "address"
        },
        {
          "internalType": "string",
          "name": "",
          "type": "string"
        },
        {
          "internalType": "string",
          "name": "",
          "type": "string"
        },
        {
          "internalType": "string",
          "name": "",
          "type": "string"
        },
        {
          "internalType": "string",
          "name": "",
          "type": "string"
        },
        {
          "internalType": "string",
          "name": "",
          "type": "string"
        },
        {
          "internalType": "string",
          "name": "",
          "type": "string"
        },
        {
          "internalType": "string",
          "name": "",
          "type": "string"
        }
      ],
      "stateMutability": "view",
      "type": "function",
      "constant": true
    },
    {
      "inputs": [
        {
          "internalType": "address",
          "name": "_address",
          "type": "address"
        }
      ],
      "name": "searchRecordDate",
      "outputs": [
        {
          "internalType": "uint256",
          "name": "",
          "type": "uint256"
        }
      ],
      "stateMutability": "view",
      "type": "function",
      "constant": true
    },
    {
      "inputs": [
        {
          "internalType": "address",
          "name": "_address",
          "type": "address"
        }
      ],
      "name": "searchDoctorDate",
      "outputs": [
        {
          "internalType": "uint256",
          "name": "",
          "type": "uint256"
        }
      ],
      "stateMutability": "view",
      "type": "function",
      "constant": true
    },
    {
      "inputs": [
        {
          "internalType": "uint256",
          "name": "_id",
          "type": "uint256"
        }
      ],
      "name": "searchAppointmentDate",
      "outputs": [
        {
          "internalType": "uint256",
          "name": "",
          "type": "uint256"
        }
      ],
      "stateMutability": "view",
      "type": "function",
      "constant": true
    },
    {
      "inputs": [],
      "name": "getPatientCount",
      "outputs": [
        {
          "internalType": "uint256",
          "name": "",
          "type": "uint256"
        }
      ],
      "stateMutability": "view",
      "type": "function",
      "constant": true
    },
    {
      "inputs": [],
      "name": "getDoctorCount",
      "outputs": [
        {
          "internalType": "uint256",
          "name": "",
          "type": "uint256"
        }
      ],
      "stateMutability": "view",
      "type": "function",
      "constant": true
    },
    {
      "inputs": [],
      "name": "getAppointmentCount",
      "outputs": [
        {
          "internalType": "uint256",
          "name": "",
          "type": "uint256"
        }
      ],
      "stateMutability": "view",
      "type": "function",
      "constant": true
    },
    {
      "inputs": [],
      "name": "getPermissionGrantedCount",
      "outputs": [
        {
          "internalType": "uint256",
          "name": "",
          "type": "uint256"
        }
      ],
      "stateMutability": "view",
      "type": "function",
      "constant": true
    },
    {
      "inputs": [
        {
          "internalType": "address",
          "name": "_address",
          "type": "address"
        }
      ],
      "name": "getAppointmentPerPatient",
      "outputs": [
        {
          "internalType": "uint256",
          "name": "",
          "type": "uint256"
        }
      ],
      "stateMutability": "view",
      "type": "function",
      "constant": true
    },
    {
      "inputs": [
        {
          "internalType": "string",
          "name": "ipfsHash",
          "type": "string"
        }
      ],
      "name": "uploadPatientFile",
      "outputs": [],
      "stateMutability": "nonpayable",
      "type": "function"
    },
    {
      "inputs": [
        {
          "internalType": "address",
          "name": "_patient",
          "type": "address"
        },
        {
          "internalType": "string",
          "name": "ipfsHash",
          "type": "string"
        }
      ],
      "name": "uploadPatientFileByDoctor",
      "outputs": [],
      "stateMutability": "nonpayable",
      "type": "function"
    },
    {
      "inputs": [
        {
          "internalType": "uint256",
          "name": "appointmentId",
          "type": "uint256"
        },
        {
          "internalType": "string",
          "name": "ipfsHash",
          "type": "string"
        }
      ],
      "name": "uploadAppointmentFile",
      "outputs": [],
      "stateMutability": "nonpayable",
      "type": "function"
    },
    {
      "inputs": [
        {
          "internalType": "address",
          "name": "_patient",
          "type": "address"
        }
      ],
      "name": "getPatientFiles",
      "outputs": [
        {
          "internalType": "string[]",
          "name": "",
          "type": "string[]"
        }
      ],
      "stateMutability": "view",
      "type": "function",
      "constant": true
    },
    {
      "inputs": [
        {
          "internalType": "uint256",
          "name": "appointmentId",
          "type": "uint256"
        }
      ],
      "name": "getAppointmentFiles",
      "outputs": [
        {
          "internalType": "string[]",
          "name": "",
          "type": "string[]"
        }
      ],
      "stateMutability": "view",
      "type": "function",
      "constant": true
    }
  ],
  "bytecode": "0x60808060405234610027575f80546001600160a01b03191633179055612488908161002c8239f35b5f80fdfe6080806040526004361015610012575f80fd5b5f3560e01c90816302516abd14611c80575080630516e90a14611c445780630869cfbc14611a6c578063127ca4b414611a1257806312ad1c371461199157806312dc90131461187f5780631af624fb1461171e578063245f9686146114ef57806324c24b2b146107c157806329e4afbb146103275780632a825ba0146113e8578063326c2f9d146103445780633622b7f6146112fd5780633bc98280146112a55780633d391f701461124a578063473d8bf5146111e4578063625961fc146111a9578063782ed8021461109657806378522bc41461107957806379111c1c146110795780638b945c6d14610eeb5780638da5cb5b14610ec45780638f9c79ed14610e8757806396b80d0814610dd5578063996440c614610d9857806399a363c614610b2e578063a0303c411461069f578063a253061614610b01578063a389783e14610aab578063a5aca8bc14610a1d578063a9583c2214610900578063b13d5d9414610873578063babb1d4114610819578063bd6f972b146107de578063c0cb24ba146107c1578063c1816dfb146106bc578063c190665b1461069f578063c4ac73b5146105d1578063caee6c85146104e6578063cd8fd542146103b3578063e747428b1461037c578063e93a15b914610344578063eebc3fb214610327578063f6e753551461026d5763fc6266d81461020b575f80fd5b34610269576020366003190112610269576004356001600160401b0381116102695761023e610267913690600401611ec8565b335f52600460205261025660ff60405f205416612360565b335f52600f60205260405f20612425565b005b5f80fd5b34610269576040366003190112610269576004356024356001600160401b038111610269576102a0903690600401611ec8565b335f5260056020526102b860ff60405f2054166123a5565b815f5260036020523360018060a01b03600160405f20015416036102ea57610267915f52601060205260405f20612425565b60405162461bcd60e51b81526020600482015260156024820152742737ba1030b83837b4b73a36b2b73a1037bbb732b960591b6044820152606490fd5b34610269575f366003190112610269576020600d54604051908152f35b34610269576020366003190112610269576001600160a01b03610365611cc9565b165f52600a602052602060405f2054604051908152f35b3461026957602036600319011261026957600435600954811015610269576103a5602091611cdf565b90546040519160031b1c8152f35b3461026957602080600319360112610269576004355f818152600383526040902060018082015490939291336001600160a01b0392831614919082156104d5575b50501561047f575f526010815260405f208054906001600160401b03821161046b5760405192610429818460051b0185611d61565b8284525f9182528082208185015b848410610450576040518061044c8882612194565b0390f35b8683819261045d85611d82565b815201920193019290610437565b634e487b7160e01b5f52604160045260245ffd5b60405162461bcd60e51b815260048101839052602860248201527f4e6f7420617574686f72697a656420746f2076696577206170706f696e746d656044820152676e742066696c657360c01b6064820152608490fd5b6002919250015416331484806103f4565b34610269576020366003190112610269576001600160a01b03610507611cc9565b16805f52600560205260ff60405f2054161561058c575f52600260205260405f2061053181611d82565b61044c61054060018401611d82565b9261054d60028201611d82565b9061055a60038201611d82565b61056660048301611d82565b9061057f600661057860058601611d82565b9401611d82565b9360405197889788612061565b60405162461bcd60e51b815260206004820152601760248201527f4e6f742061207265676973746572656420646f63746f720000000000000000006044820152606490fd5b34610269576040366003190112610269576105ea611cc9565b6024356001600160401b03811161026957610609903690600401611ec8565b335f526020916005835261062360ff60405f2054166123a5565b6001600160a01b03165f818152600684526040808220338352855290205460ff161561065c5761026792600f915f525260405f20612425565b6064836040519062461bcd60e51b825280600483015260248201527f446f63746f72206e6f7420617574686f72697a65642062792070617469656e746044820152fd5b34610269575f366003190112610269576020600b54604051908152f35b3461026957602080600319360112610269576001600160a01b036106de611cc9565b1680331480156107a3575b1561075e575f52600f815260405f209081546001600160401b03811161046b5782906040519161071e848360051b0184611d61565b8183525f908152838120938084015b838310610742576040518061044c8782612194565b600182819261075089611d82565b81520196019201919461072d565b60405162461bcd60e51b815260048101839052601c60248201527f4e6f7420617574686f72697a656420746f20766965772066696c6573000000006044820152606490fd5b50805f526006825260405f20335f52825260ff60405f2054166106e9565b34610269575f366003190112610269576020600e54604051908152f35b34610269576020366003190112610269576001600160a01b036107ff611cc9565b165f5260016020526020600e60405f200154604051908152f35b34610269576020366003190112610269576004356007548110156102695760075f527fa66cc928b5edb82af9bd49922954155ab7b0942694bea4ce44661d9a8736c68801546040516001600160a01b039091168152602090f35b34610269575f36600319011261026957604051806008549182815260208091019260085f527ff3f7a9fe364faab93b216da50a3214154f22a0a2b415b23a84c8169e8b636ee3915f905b8282106108e05761044c856108d481890382611d61565b60405191829182611e85565b83546001600160a01b0316865294850194600193840193909101906108bd565b34610269576020366003190112610269576001600160a01b0380610922611cc9565b165f52600260205260405f2061093781611d82565b9061094460018201611d82565b9261095160028301611d82565b9061095e60038401611d82565b61096a60048501611d82565b61097660058601611d82565b9161098360068701611d82565b93600787015416956008015494604051988998610120808b528a016109a791611e47565b89810360208b01526109b891611e47565b88810360408a01526109c991611e47565b87810360608901526109da91611e47565b86810360808801526109eb91611e47565b85810360a08701526109fc91611e47565b84810360c0860152610a0d91611e47565b9160e08401526101008301520390f35b3461026957610267610a936006610a8a610aa5610a81610a9c610a3f366120df565b9b94999293919599979097335f526005602052610a6260ff60405f2054166123a5565b335f526002602052610a7860405f209b8c612236565b60018b01612236565b60028901612236565b60038701612236565b60048501612236565b60058301612236565b01612236565b3461026957604036600319011261026957610ac4611cc9565b6001600160a01b03602435818116929083900361026957165f52600660205260405f20905f52602052602060ff60405f2054166040519015158152f35b34610269576020366003190112610269576004355f5260036020526020600960405f200154604051908152f35b3461026957610b3c36611f1d565b9a999099989198979297969396959495335f526004602052610b6560ff60405f205416156121f5565b6040519c8d6001600160401b036101e082818101109201111761046b576101e08e016040528d5260208d015260408c015260608b015260808a015260a089015260c088015260e0870152610100860152610120850152610140840152610160830152610180820152336101a0820152426101c0820152335f52600160205260405f20610bf2825182612236565b610c03602083015160018301612236565b610c14604083015160028301612236565b610c25606083015160038301612236565b610c36608083015160048301612236565b610c4760a083015160058301612236565b610c5860c083015160068301612236565b610c6960e083015160078301612236565b610c7b61010083015160088301612236565b610c8d61012083015160098301612236565b610c9f610140830151600a8301612236565b610cb1610160830151600b8301612236565b610cc3610180830151600c8301612236565b600e6101c0600d83019360018060a01b036101a082015116946bffffffffffffffffffffffff60a01b95868254161790550151910155600754600160401b81101561046b576001810180600755811015610d84577fa66cc928b5edb82af9bd49922954155ab7b0942694bea4ce44661d9a8736c68801903390825416179055335f52600460205260405f2060ff1990600182825416179055600660205260405f20602052600160405f2091825416179055610d7f600b5461233e565b600b55005b634e487b7160e01b5f52603260045260245ffd5b34610269576020366003190112610269576001600160a01b03610db9611cc9565b165f526005602052602060ff60405f2054166040519015158152f35b34610269575f36600319011261026957604051806009548083526020809301809160095f527f6e1540171b6c0c960b71a7020d9f60077f6af931a8bbf590da0223dacf75c7af905f5b86828210610e73578686610e3482880383611d61565b60405192839281840190828552518091526040840192915f5b828110610e5c57505050500390f35b835185528695509381019392810192600101610e4d565b835485529093019260019283019201610e1e565b34610269576020366003190112610269576001600160a01b03610ea8611cc9565b165f526004602052602060ff60405f2054166040519015158152f35b34610269575f366003190112610269575f546040516001600160a01b039091168152602090f35b3461026957610ef9366120df565b9295949395919091335f526005602052610f1a60ff60405f205416156121f5565b6040519561012087018781106001600160401b0382111761046b5760405286526020860194855260408601968752606086019081526080860191825260a0860192835260c0860193845260e0860196338852610100870195428752335f52600260205260405f209751610f8d9089612236565b51610f9b9060018901612236565b51610fa99060028801612236565b51610fb79060038701612236565b51610fc59060048601612236565b51610fd39060058501612236565b51610fe19060068401612236565b91516007820180546001600160a01b039092166001600160a01b0319928316179055915160089182015554600160401b81101561046b576001810180600855811015610d84577ff3f7a9fe364faab93b216da50a3214154f22a0a2b415b23a84c8169e8b636ee301903390825416179055335f52600560205260405f20600160ff19825416179055611074600c5461233e565b600c55005b34610269575f366003190112610269576020600c54604051908152f35b34610269576020366003190112610269576004355f52600360205260405f2060018060a01b03600182015416805f52600260205261044c6110dc600160405f2001611d82565b9261119b6110ec60038301611d82565b9161118d6110fc60048301611d82565b61117f61110b60078501611d82565b61117161111a60058701611d82565b93611163611136600861112f60068b01611d82565b9901611d82565b996111556040519e8f9e8f908152610100908160208201520190611e47565b8d810360408f015290611e47565b908b820360608d0152611e47565b9089820360808b0152611e47565b9087820360a0890152611e47565b9085820360c0870152611e47565b9083820360e0850152611e47565b34610269576020366003190112610269576001600160a01b036111ca611cc9565b165f5260026020526020600860405f200154604051908152f35b34610269576040366003190112610269576111fd611cc9565b6001600160a01b03165f908152600f60205260409020805460243590811015610269576112306112369161044c93611d14565b90611e23565b604051918291602083526020830190611e47565b3461026957602036600319011261026957611263611cc9565b335f52600660205260405f209060018060a01b03165f5260205260405f20600160ff19825416179055611297600e5461233e565b600e55602060405160018152f35b34610269576020366003190112610269576001600160a01b036112c6611cc9565b16805f52600660205260405f20335f526020526112e960ff60405f2054166123e9565b5f52600160205260405f2061053181611d82565b346102695761130b36611f1d565b9b9a999099989198979297969396959495335f52600460205260405f205460ff1661133590612360565b335f52600160205260405f209b61134c908d612236565b6113599060018d01612236565b6113669060028c01612236565b6113739060038b01612236565b6113809060048a01612236565b61138d9060058901612236565b61139a9060068801612236565b6113a79060078701612236565b6113b49060088601612236565b6113c19060098501612236565b6113ce90600a8401612236565b6113db90600b8301612236565b600c019061026791612236565b34610269576020366003190112610269576001600160a01b03611409611cc9565b16805f52600660205260405f20335f5260205261142c60ff60405f2054166123e9565b5f5260016020526114a960405f2061044c61144960078301611d82565b916114e161145960088301611d82565b916114d361146960098301611d82565b6114c5611478600a8501611d82565b916114b7611494600c61148d600b8901611d82565b9701611d82565b976040519b8c9b60c08d5260c08d0190611e47565b908b820360208d0152611e47565b9089820360408b0152611e47565b908782036060890152611e47565b908582036080870152611e47565b9083820360a0850152611e47565b346102695760e036600319011261026957611508611cc9565b6001600160401b0360243581811161026957611528903690600401611ec8565b60443582811161026957611540903690600401611ec8565b60643583811161026957611558903690600401611ec8565b60843584811161026957611570903690600401611ec8565b60a43585811161026957611588903690600401611ec8565b9060c435868111610269576115a1903690600401611ec8565b93335f5260056020526115ba60ff60405f2054166123a5565b6115c5600d5461233e565b9586600d55604051976101408901908982109082111761046b57604052868852602088013381526040890190600160a01b60019003809b169a8b835260608b0193845260808b0194855260a08b0195865260c08b0196875260e08b019788526101008b019889526101208b0199428b525f52600360205260405f209a518b558060018c01925116916bffffffffffffffffffffffff60a01b928382541617905560028b019251169082541617905551600388019061168291612236565b516116909060048801612236565b5161169e9060058701612236565b516116ac9060068601612236565b516116ba9060078501612236565b516116c89060088401612236565b519060090155600d54600954600160401b81101561046b578060016116f09201600955611cdf565b819291549060031b91821b915f19901b19161790555f52600a60205260405f2061171a815461233e565b9055005b346102695760e0366003190112610269576001600160401b036024358181116102695761174f903690600401611ec8565b9060443581811161026957611768903690600401611ec8565b60643582811161026957611780903690600401611ec8565b9260843583811161026957611799903690600401611ec8565b9360a435848111610269576117b2903690600401611ec8565b9360c435908111610269576117cb903690600401611ec8565b93335f5260056020526117e460ff60405f2054166123a5565b6004355f52600360205260405f20923360018060a01b036001860154160361184b5761026796611839610aa5946118306008986118276118429660038b01612236565b60048901612236565b60078701612236565b60058501612236565b60068301612236565b60405162461bcd60e51b815260206004820152600c60248201526b155b985d5d1a1bdc9a5e995960a21b6044820152606490fd5b34610269576020366003190112610269576004355f52600360205260405f208054600160a01b6001900391826001820154169260028201541690600381016118c690611d82565b6118d260048301611d82565b6118de60058401611d82565b6118ea60068501611d82565b916118f760078601611d82565b9361190460088701611d82565b956009015496604051998a998a5260208a015260408901526101408060608a0152880161193091611e47565b878103608089015261194191611e47565b86810360a088015261195291611e47565b85810360c087015261196391611e47565b84810360e086015261197491611e47565b83810361010085015261198691611e47565b906101208301520390f35b34610269575f36600319011261026957604051806007549182815260208091019260075f527fa66cc928b5edb82af9bd49922954155ab7b0942694bea4ce44661d9a8736c688915f905b8282106119f25761044c856108d481890382611d61565b83546001600160a01b0316865294850194600193840193909101906119db565b34610269576020366003190112610269576004356008548110156102695760085f527ff3f7a9fe364faab93b216da50a3214154f22a0a2b415b23a84c8169e8b636ee301546040516001600160a01b039091168152602090f35b34610269576020366003190112610269576001600160a01b0380611a8e611cc9565b165f52600160205260405f2090611aa482611d82565b91611ab160018201611d82565b91611abe60028301611d82565b90611acb60038401611d82565b611ad760048501611d82565b611ae360058601611d82565b611aef60068701611d82565b611afb60078801611d82565b611b0760088901611d82565b91611b1460098a01611d82565b93611b21600a8b01611d82565b95611b2e600b8c01611d82565b97611b3b600c8d01611d82565b99600d8d0154169b600e01549a6040519e8f9e8f916101e08084528301611b6191611e47565b8281036020840152611b7291611e47565b908082039060400152611b8491611e47565b8d810360608f0152611b9591611e47565b8c810360808e0152611ba691611e47565b8b810360a08d0152611bb791611e47565b8a810360c08c0152611bc891611e47565b89810360e08b0152611bd991611e47565b8881036101008a0152611beb91611e47565b878103610120890152611bfd91611e47565b868103610140880152611c0f91611e47565b858103610160870152611c2191611e47565b848103610180860152611c3391611e47565b916101a08401526101c08301520390f35b34610269576040366003190112610269576024356004355f52601060205260405f20908154811015610269576112306112369161044c93611d14565b3461026957602036600319011261026957602090611c9c611cc9565b335f9081526006845260408082206001600160a01b03909316825291845220805460ff1916905560018152f35b600435906001600160a01b038216820361026957565b600954811015610d845760095f527f6e1540171b6c0c960b71a7020d9f60077f6af931a8bbf590da0223dacf75c7af01905f90565b8054821015610d84575f5260205f2001905f90565b90600182811c92168015611d57575b6020831014611d4357565b634e487b7160e01b5f52602260045260245ffd5b91607f1691611d38565b90601f801991011681019081106001600160401b0382111761046b57604052565b9060405191825f825492611d9584611d29565b9081845260019485811690815f14611e005750600114611dc0575b5050611dbe92500383611d61565b565b909391505f52602090815f20935f915b818310611de8575050611dbe93508201015f80611db0565b85548884018501529485019487945091830191611dd0565b915050611dbe94506020925060ff191682840152151560051b8201015f80611db0565b90611e3457611e3190611d82565b90565b634e487b7160e01b5f525f60045260245ffd5b91908251928382525f5b848110611e71575050825f602080949584010152601f8019910116010190565b602081830181015184830182015201611e51565b602090816040818301928281528551809452019301915f5b828110611eab575050505090565b83516001600160a01b031685529381019392810192600101611e9d565b81601f82011215610269578035906001600160401b03821161046b5760405192611efc601f8401601f191660200185611d61565b8284526020838301011161026957815f926020809301838601378301015290565b6101a0600319820112610269576004906001600160401b0382358181116102695782611f4a918501611ec8565b936024358281116102695783611f61918601611ec8565b936044358381116102695784611f78918301611ec8565b936064358481116102695781611f8f918401611ec8565b936084358181116102695782611fa6918501611ec8565b9360a4358281116102695783611fbd918601611ec8565b9360c4358381116102695784611fd4918301611ec8565b9360e4358481116102695781611feb918401611ec8565b93610104358181116102695782612003918501611ec8565b9361012435828111610269578361201b918601611ec8565b93610144358381116102695784612033918301611ec8565b9361016435848111610269578161204b918401611ec8565b936101843590811161026957611e319201611ec8565b95926120d1946120a76120b5926120996120c39661208b611e319d9b9760e08e8181520190611e47565b8c810360208e015290611e47565b908a820360408c0152611e47565b9088820360608a0152611e47565b908682036080880152611e47565b9084820360a0860152611e47565b9160c0818403910152611e47565b9060e0600319830112610269576001600160401b039060048035838111610269578461210c918301611ec8565b936024358481116102695781612123918401611ec8565b93604435818111610269578261213a918501611ec8565b936064358281116102695783612151918601611ec8565b936084358381116102695784612168918301611ec8565b9360a435848111610269578161217f918401611ec8565b9360c43590811161026957611e319201611ec8565b602080820190808352835180925260408301928160408460051b8301019501935f915b8483106121c75750505050505090565b90919293949584806121e5600193603f198682030187528a51611e47565b98019301930191949392906121b7565b156121fc57565b60405162461bcd60e51b8152602060048201526012602482015271105b1c9958591e481c9959da5cdd195c995960721b6044820152606490fd5b91909182516001600160401b03811161046b576122538254611d29565b601f81116122f7575b50602080601f83116001146122975750819293945f9261228c575b50508160011b915f199060031b1c1916179055565b015190505f80612277565b90601f19831695845f52825f20925f905b8882106122df575050836001959697106122c7575b505050811b019055565b01515f1960f88460031b161c191690555f80806122bd565b806001859682949686015181550195019301906122a8565b5f83815260208120601f840160051c81019260208510612334575b601f0160051c01915b82811061232957505061225c565b81815560010161231b565b9092508290612312565b5f19811461234c5760010190565b634e487b7160e01b5f52601160045260245ffd5b1561236757565b60405162461bcd60e51b8152602060048201526016602482015275139bdd081c9959da5cdd195c9959081c185d1a595b9d60521b6044820152606490fd5b156123ac57565b60405162461bcd60e51b81526020600482015260156024820152742737ba103932b3b4b9ba32b932b2103237b1ba37b960591b6044820152606490fd5b156123f057565b60405162461bcd60e51b815260206004820152600d60248201526c1058d8d95cdcc819195b9a5959609a1b6044820152606490fd5b8054600160401b81101561046b5761244291600182018155611d14565b919091611e3457611dbe9161223656fea264697066735822122086996a4f2aa1a6f33417c7374987491385a7f05464558071f401994937c3496164736f6c63430008140033",
  "immutableReferences": {},
  "source": "// SPDX-License-Identifier: MIT\r\npragma solidity ^0.8.20;\r\n\r\ncontract Record {\r\n\r\n    struct Patient {\r\n        string ic;\r\n        string name;\r\n        string phone;\r\n        string gender;\r\n        string dob;\r\n        string height;\r\n        string weight;\r\n        string houseaddr;\r\n        string bloodgroup;\r\n        string allergies;\r\n        string medication;\r\n        string emergencyName;\r\n        string emergencyContact;\r\n        address addr;\r\n        uint date;\r\n    }\r\n\r\n    struct Doctor {\r\n        string ic;\r\n        string name;\r\n        string phone;\r\n        string gender;\r\n        string dob;\r\n        string qualification;\r\n        string major;\r\n        address addr;\r\n        uint date;\r\n    }\r\n\r\n    struct Appointment {\r\n        uint id;\r\n        address doctoraddr;\r\n        address patientaddr;\r\n        string date;\r\n        string time;\r\n        string prescription;\r\n        string description;\r\n        string diagnosis;\r\n        string status;\r\n        uint creationDate;\r\n    }\r\n\r\n    address public owner;\r\n\r\n    mapping(address => Patient) public patients;\r\n    mapping(address => Doctor) public doctors;\r\n    mapping(uint => Appointment) public appointments;\r\n    mapping(address => bool) public isPatient;\r\n    mapping(address => bool) public isDoctor;\r\n    mapping(address => mapping(address => bool)) public isApproved;\r\n\r\n    address[] public patientList;\r\n    address[] public doctorList;\r\n    uint[] public appointmentIds;\r\n\r\n    mapping(address => uint) public AppointmentPerPatient;\r\n\r\n    uint public patientCount;\r\n    uint public doctorCount;\r\n    uint public appointmentCount;\r\n    uint public permissionGrantedCount;\r\n\r\n    // IPFS mappings\r\n    mapping(address => string[]) public patientFiles;\r\n    mapping(uint => string[]) public appointmentFiles;\r\n\r\n    modifier onlyPatient() {\r\n        require(isPatient[msg.sender], \"Not registered patient\");\r\n        _;\r\n    }\r\n\r\n    modifier onlyDoctor() {\r\n        require(isDoctor[msg.sender], \"Not registered doctor\");\r\n        _;\r\n    }\r\n\r\n    constructor() {\r\n        owner = msg.sender;\r\n    }\r\n\r\n    function setDetails(\r\n        string memory _ic, string memory _name, string memory _phone, string memory _gender, string memory _dob,\r\n        string memory _height, string memory _weight, string memory _houseaddr, string memory _bloodgroup,\r\n        string memory _allergies, string memory _medication, string memory _emergencyName, string memory _emergencyContact\r\n    ) external {\r\n        require(!isPatient[msg.sender], \"Already registered\");\r\n\r\n        patients[msg.sender] = Patient({\r\n            ic: _ic,\r\n            name: _name,\r\n            phone: _phone,\r\n            gender: _gender,\r\n            dob: _dob,\r\n            height: _height,\r\n            weight: _weight,\r\n            houseaddr: _houseaddr,\r\n            bloodgroup: _bloodgroup,\r\n            allergies: _allergies,\r\n            medication: _medication,\r\n            emergencyName: _emergencyName,\r\n            emergencyContact: _emergencyContact,\r\n            addr: msg.sender,\r\n            date: block.timestamp\r\n        });\r\n\r\n        patientList.push(msg.sender);\r\n        isPatient[msg.sender] = true;\r\n        isApproved[msg.sender][msg.sender] = true;\r\n        patientCount++;\r\n    }\r\n\r\n    function editDetails(\r\n        string memory _ic, string memory _name, string memory _phone, string memory _gender, string memory _dob,\r\n        string memory _height, string memory _weight, string memory _houseaddr, string memory _bloodgroup,\r\n        string memory _allergies, string memory _medication, string memory _emergencyName, string memory _emergencyContact\r\n    ) external onlyPatient {\r\n        Patient storage p = patients[msg.sender];\r\n\r\n        p.ic = _ic;\r\n        p.name = _name;\r\n        p.phone = _phone;\r\n        p.gender = _gender;\r\n        p.dob = _dob;\r\n        p.height = _height;\r\n        p.weight = _weight;\r\n        p.houseaddr = _houseaddr;\r\n        p.bloodgroup = _bloodgroup;\r\n        p.allergies = _allergies;\r\n        p.medication = _medication;\r\n        p.emergencyName = _emergencyName;\r\n        p.emergencyContact = _emergencyContact;\r\n    }\r\n\r\n    function setDoctor(\r\n        string memory _ic, string memory _name, string memory _phone, string memory _gender, string memory _dob,\r\n        string memory _qualification, string memory _major\r\n    ) external {\r\n        require(!isDoctor[msg.sender], \"Already registered\");\r\n\r\n        doctors[msg.sender] = Doctor({\r\n            ic: _ic,\r\n            name: _name,\r\n            phone: _phone,\r\n            gender: _gender,\r\n            dob: _dob,\r\n            qualification: _qualification,\r\n            major: _major,\r\n            addr: msg.sender,\r\n            date: block.timestamp\r\n        });\r\n\r\n        doctorList.push(msg.sender);\r\n        isDoctor[msg.sender] = true;\r\n        doctorCount++;\r\n    }\r\n\r\n    function editDoctor(\r\n        string memory _ic, string memory _name, string memory _phone, string memory _gender, string memory _dob,\r\n        string memory _qualification, string memory _major\r\n    ) external onlyDoctor {\r\n        Doctor storage d = doctors[msg.sender];\r\n\r\n        d.ic = _ic;\r\n        d.name = _name;\r\n        d.phone = _phone;\r\n        d.gender = _gender;\r\n        d.dob = _dob;\r\n        d.qualification = _qualification;\r\n        d.major = _major;\r\n    }\r\n\r\n    function setAppointment(\r\n        address _patient, string memory _date, string memory _time, string memory _diagnosis,\r\n        string memory _prescription, string memory _description, string memory _status\r\n    ) external onlyDoctor {\r\n        appointmentCount++;\r\n        appointments[appointmentCount] = Appointment({\r\n            id: appointmentCount,\r\n            doctoraddr: msg.sender,\r\n            patientaddr: _patient,\r\n            date: _date,\r\n            time: _time,\r\n            diagnosis: _diagnosis,\r\n            prescription: _prescription,\r\n            description: _description,\r\n            status: _status,\r\n            creationDate: block.timestamp\r\n        });\r\n\r\n        appointmentIds.push(appointmentCount);\r\n        AppointmentPerPatient[_patient]++;\r\n    }\r\n\r\n    function updateAppointment(\r\n        uint _id, string memory _date, string memory _time, string memory _diagnosis,\r\n        string memory _prescription, string memory _description, string memory _status\r\n    ) external onlyDoctor {\r\n        Appointment storage a = appointments[_id];\r\n        require(a.doctoraddr == msg.sender, \"Unauthorized\");\r\n\r\n        a.date = _date;\r\n        a.time = _time;\r\n        a.diagnosis = _diagnosis;\r\n        a.prescription = _prescription;\r\n        a.description = _description;\r\n        a.status = _status;\r\n    }\r\n\r\n    function givePermission(address _doctor) external returns (bool) {\r\n        isApproved[msg.sender][_doctor] = true;\r\n        permissionGrantedCount++;\r\n        return true;\r\n    }\r\n\r\n    function RevokePermission(address _doctor) external returns (bool) {\r\n        isApproved[msg.sender][_doctor] = false;\r\n        return true;\r\n    }\r\n\r\n    function getPatients() external view returns (address[] memory) {\r\n        return patientList;\r\n    }\r\n\r\n    function getDoctors() external view returns (address[] memory) {\r\n        return doctorList;\r\n    }\r\n\r\n    function getAppointments() external view returns (uint[] memory) {\r\n        return appointmentIds;\r\n    }\r\n\r\n    function searchPatientDemographic(address _address) external view returns (\r\n        string memory, string memory, string memory, string memory, string memory, string memory, string memory\r\n    ) {\r\n        require(isApproved[_address][msg.sender], \"Access denied\");\r\n        Patient storage p = patients[_address];\r\n        return (p.ic, p.name, p.phone, p.gender, p.dob, p.height, p.weight);\r\n    }\r\n\r\n    function searchPatientMedical(address _address) external view returns (\r\n        string memory, string memory, string memory, string memory, string memory, string memory\r\n    ) {\r\n        require(isApproved[_address][msg.sender], \"Access denied\");\r\n        Patient storage p = patients[_address];\r\n        return (p.houseaddr, p.bloodgroup, p.allergies, p.medication, p.emergencyName, p.emergencyContact);\r\n    }\r\n\r\n    function searchDoctor(address _address) external view returns (\r\n        string memory, string memory, string memory, string memory, string memory, string memory, string memory\r\n    ) {\r\n        require(isDoctor[_address], \"Not a registered doctor\");\r\n        Doctor storage d = doctors[_address];\r\n        return (d.ic, d.name, d.phone, d.gender, d.dob, d.qualification, d.major);\r\n    }\r\n\r\n    function searchAppointment(uint _id) external view returns (\r\n        address, string memory, string memory, string memory, string memory, string memory, string memory, string memory\r\n    ) {\r\n        Appointment storage a = appointments[_id];\r\n        Doctor storage d = doctors[a.doctoraddr];\r\n        return (a.doctoraddr, d.name, a.date, a.time, a.diagnosis, a.prescription, a.description, a.status);\r\n    }\r\n\r\n    function searchRecordDate(address _address) external view returns (uint) {\r\n        return patients[_address].date;\r\n    }\r\n\r\n    function searchDoctorDate(address _address) external view returns (uint) {\r\n        return doctors[_address].date;\r\n    }\r\n\r\n    function searchAppointmentDate(uint _id) external view returns (uint) {\r\n        return appointments[_id].creationDate;\r\n    }\r\n\r\n    function getPatientCount() external view returns (uint) {\r\n        return patientCount;\r\n    }\r\n\r\n    function getDoctorCount() external view returns (uint) {\r\n        return doctorCount;\r\n    }\r\n\r\n    function getAppointmentCount() external view returns (uint) {\r\n        return appointmentCount;\r\n    }\r\n\r\n    function getPermissionGrantedCount() external view returns (uint) {\r\n        return permissionGrantedCount;\r\n    }\r\n\r\n    function getAppointmentPerPatient(address _address) external view returns (uint) {\r\n        return AppointmentPerPatient[_address];\r\n    }\r\n\r\n    // New: Upload IPFS file by patient\r\n    function uploadPatientFile(string memory ipfsHash) external onlyPatient {\r\n        patientFiles[msg.sender].push(ipfsHash);\r\n    }\r\n\r\n    // New: Upload IPFS file by doctor with patient's permission\r\n    function uploadPatientFileByDoctor(address _patient, string memory ipfsHash) external onlyDoctor {\r\n        require(isApproved[_patient][msg.sender], \"Doctor not authorized by patient\");\r\n        patientFiles[_patient].push(ipfsHash);\r\n    }\r\n\r\n    // New: Upload IPFS file to appointment\r\n    function uploadAppointmentFile(uint appointmentId, string memory ipfsHash) external onlyDoctor {\r\n        require(appointments[appointmentId].doctoraddr == msg.sender, \"Not appointment owner\");\r\n        appointmentFiles[appointmentId].push(ipfsHash);\r\n    }\r\n\r\n    // New: Get patient file hashes\r\n    function getPatientFiles(address _patient) external view returns (string[] memory) {\r\n        require(\r\n            msg.sender == _patient || isApproved[_patient][msg.sender],\r\n            \"Not authorized to view files\"\r\n        );\r\n        return patientFiles[_patient];\r\n    }\r\n\r\n    // New: Get appointment file hashes\r\n    function getAppointmentFiles(uint appointmentId) external view returns (string[] memory) {\r\n        require(\r\n            msg.sender == appointments[appointmentId].doctoraddr ||\r\n            msg.sender == appointments[appointmentId].patientaddr,\r\n            \"Not authorized to view appointment files\"\r\n        );\r\n        return appointmentFiles[appointmentId];\r\n    }\r\n}\r\n",
  "sourcePath": "C:\\Users\\Sky\\Documents\\blockchain\\contracts\\Record.sol",
  "compiler": {
    "name": "solc",
    "version": "0.8.20+commit.a1b79de6.Emscripten.clang"
  },
  "schemaVersion": "3.4.16",
  "updatedAt": "2025-07-13T21:30:55.453Z",
  "networkType": "ethereum",
  "devdoc": {
    "kind": "dev",
    "methods": {},
    "version": 1
  },
  "userdoc": {
    "kind": "user",
    "methods": {},
    "version": 1
  }
}